:10000000021E2075910253F1FB8FD9E5DF30E3FB2F
:1000100075910253F1FB223098FDAF99C2987E0092
:0100200022BD
:03002300021FDADF
:10002B000221D61225A3E4F59143B38053B47FF597
:10003B009153E830F5F643F60143E10153E87F4372
:10004B00E84030EFFDA2B5B392B5AFC3EF75F0103A
:10005B00A4FFE5C2540F7C002FFFEC35F0FEE4F556
:0C006B009153E1FEF5F6759102F5992223
:10007B00021EBAE52224B8F582E43402F583E005CA
:10008B0022229002B53007039002B8E475F00112FA
:10009B00069F0203E32000E97F2ED2008018EF5465
:1000AB000F2490D43440D4FF30040BEF24BFB41A88
:1000BB000050032461FFE523600215230526E52686
:1000CB007002052530070E9002B5E475F00112069B
:1000DB009FEF0203FC0225597403D2078003E4C28D
:1000EB0007F5229002B51206CDE4F523F525F5268A
:1000FB00E52360077F201200C180F57524FFC20144
:10010B00C200C202C203C205C206C20812008DFFA2
:10011B00700D3007057F001200D2AF26AE2522B43A
:10012B00255FC2D5C20412008DFF24D0B40A005043
:10013B001A75F00A782330D50508B6FF0106C6A458
:10014B0026F620D5047002D20380D924CFB41A002E
:10015B00EF5004C2E5D2040202D3D20180C6D20012
:10016B0080C0D20280BCD2D580BAD20580B47F20A9
:10017B001200C12002077401B5230040F112007E6A
:10018B00FF1200C10200FBD208D206809512007E3E
:10019B00FB12007EFA12007EF94A4B700679A47AA4
:1001AB00037BFF20022EE523602A7E008E8275835F
:1001BB000012062260060EEE652470F0C2D5EBC06D
:1001CB00E0EAC0E0E9C0E0EE12031AD0E0F9D0E0BB
:1001DB00FAD0E0FB1203E3FF60AAEBC0E0EAC0E059
:1001EB00E9C0E01200C1D0E02401F9D0E03400FAFC
:1001FB00D0E0FBE5240460DCD524D980877BFF7A33
:10020B00037916D202809C791080027908C206C24B
:10021B00088008D2D5790A8004790AC2D5E524046E
:10022B007002F524E4FAFDFEFF12007EFC7B082031
:10023B00011312007EFD7B1030000A12007EFE12AD
:10024B00007EFF7B20EC3382D592D55013C3E43074
:10025B0000069FFFE49EFEE42001039DFDE49CFC51
:10026B00E4CBF8C201EC700CCFCECDCCE824F8F87F
:10027B0070F38017C3EF33FFEE33FEED33FDEC333A
:10028B00FCEB33FB994002FB0FD8E9EB300105F88F
:10029B00D0E0C448B201C0E00AEC4D4E4F78207B51
:1002AB000070C2EAB5240040BCC0E012031CD0F0C1
:1002BB00D0E0200104C4C0E0C4B201C0F01200AA17
:1002CB00D0F0D5F0EB0200FB1206D60198530212C8
:1002DB005801694C01654202164F021E44021E4929
:1002EB00017E4302245502084602084502084703D3
:1002FB00C450016D2D01712E01942B0175230192B8
:10030B002003AD2A012D480000018C3F3F3F0079AF
:10031B000AA2D5200314300509B910020404B90848
:10032B000104A2D52006025001042002689202B5F6
:10033B0023005034C0E07F203003197F30A20272BB
:10034B00067205500F120373C202C206C205C20821
:10035B007F30800F300503E9C0E01200C130050388
:10036B00D0E0F9D0E0B523CC3005177F30B9100CB5
:10037B001200C17F583004077F788003B90803123D
:10038B0000C13002057F2D0200C17F202008F87FBD
:10039B002B2006F322920280CF286E756C6C2900FD
:1003AB00D20112007E3001F8C201782330D501084A
:1003BB00F602012D2D5043495812007E2403B4053B
:1003CB00004001E49003BF931200B2743A1200B2E2
:1003DB00D203752304020212BB010689828A83E0D1
:1003EB00225002E722BBFE02E32289828A83E49336
:1003FB0022BB010689828A83F0225002F722BBFEC0
:10040B0001F322C5F0F8A3E028F0C5F0F8E582155A
:10041B008270021583E038F022BB0110E58229F5CA
:10042B0082E5833AF583E0F5F0A3E0225009E92554
:10043B0082F886F008E622BBFE0AE92582F8E2F58F
:10044B00F008E222E5832AF583E993F5F0A3E9931B
:10045B0022E88FF0A4CC8BF0A42CFCE98EF0A42C1A
:10046B00FC8AF0EDA42CFCEA8EF0A4CDA8F08BF066
:10047B00A42DCC3825F0FDE98FF0A42CCD35F0FC64
:10048B00EB8EF0A4FEA9F0EB8FF0A4CFC5F02ECD30
:10049B0039FEE43CFCEAA42DCE35F0FDE43CFC2215
:1004AB0075F008758200EF2FFFEE33FECD33CDCC08
:1004BB0033CCC58233C5829BED9AEC99E58298408B
:1004CB000CF582EE9BFEED9AFDEC99FC0FD5F0D668
:1004DB00E4CEFBE4CDFAE4CCF9A88222B800C1B992
:1004EB000059BA002DEC8BF084CFCECDFCE5F0CBD0
:1004FB00F97818EF2FFFEE33FEED33FDEC33FCEB09
:10050B0033FB10D703994004EB99FB0FD8E5E4F9C3
:10051B00FA227818EF2FFFEE33FEED33FDEC33FCB0
:10052B00C933C910D7059BE99A4007EC9BFCE99AA4
:10053B00F90FD8E0E4C9FAE4CCFB2275F010EF2FE9
:10054B00FFEE33FEED33FDCC33CCC833C810D707E9
:10055B009BEC9AE899400AED9BFDEC9AFCE899F824
:10056B000FD5F0DAE4CDFBE4CCFAE4C8F922E8606D
:10057B000FECC313FCED13FDEE13FEEF13FFD8F1DD
:10058B0022ECF0A3EDF0A3EEF0A3EFF022A882850E
:10059B0083F0D083D0821205AF1205AF1205AF12D4
:1005AB0005AFE473E493A3C583C5F0C583C8C582C7
:1005BB00C8F0A3C583C5F0C583C8C582C822D08344
:1005CB00D082F8E4937012740193700DA3A393F887
:1005DB00740193F5828883E473740293B5F0067407
:1005EB0003936860E9A3A3A3A380D8EF4E6012EF37
:1005FB0060010EEDBB010B89828A83F0A3DFFCDE69
:10060B00FA2289F05007F709DFFCA9F022BBFEFCA8
:10061B00F309DFFCA9F022BB010CE58229F582E589
:10062B00833AF583E0225006E92582F8E622BBFEE9
:10063B0006E92582F8E222E58229F582E5833AF57F
:10064B0083E49322BB010A89828A83F0E5F0A3F04D
:10065B00225006F709A7F01922BBFE06F3E5F009B5
:10066B00F31922C3E49FFFE49EFEE49DFDE49CFC92
:10067B0022BB010789828A8302058C5005E9F802A7
:10068B0006FCBBFE05E9F802070822E0FBA3E0FA33
:10069B00A3E0F922F8E0FBA3A3E0F925F0F0E58253
:1006AB00158270021583E0FA38F022F8E0FBA3A361
:1006BB00E025F0F9F0E582158270021583E038FA37
:1006CB00F022EBF0A3EAF0A3E9F022D083D082F87A
:1006DB00E4937012740193700DA3A393F8740193B8
:1006EB00F5828883E4737402936860EFA3A3A380FD
:1006FB00DFECF608EDF608EEF608EFF622ECF20862
:10070B00EDF208EEF208EFF222E52230030104F8D5
:10071B00232824BDF582E43402F583229002BA30FB
:10072B0003039002BDE475F00112069F0203E36020
:10073B00EAC5267002152514C526200304FF0226E0
:10074B002C9002BA74FFF5F00206B6FF0225F9E50C
:10075B00236006D523037F002220030F1225E5EF2C
:10076B0060080526E52670020525229002BA1206BE
:10077B00961203E3FF60E89002BAE475F0011206EB
:10078B009F80DC120764EFC0E0120756D0E040F305
:10079B00809DD2038002C2039002BA1206CDE4F50B
:1007AB0024F522F525F526752300C202C200C201ED
:1007BB00C204120727FF7005AF247E0022B4253038
:1007CB00120727FF24D0B40A00500C75F00AC5237A
:1007DB00A42523F52380E924CFB41A00EF5002C2DD
:1007EB00E5020A02D20180D8D20080D4D20480D094
:1007FB00EF120756500812078EEF600E80A9EFC05C
:10080B00E0120764D0E06F609EEF607412073A80CD
:10081B00A7120764EF6069E52370070523800312B5
:10082B000764EF601420040E120714E475F0011234
:10083B00069FEF1203FCD523E620040405220524B2
:10084B0080BA12075AEFC0E0120756D0E0500412DC
:10085B00073AE4FF20040E120714E475F0011206A8
:10086B009FEF1203FCEF70DA2004040522052480AD
:10087B008BE5236002052312078E12075AEF70C611
:10088B00300304E412073AE52460030207C37EFF3A
:10089B007FFF2220041174FFFCFDFEFF12071412D0
:1008AB00069612067C05220207B2D0E080D27900B0
:1008BB00800A7910800679088002790AD205E5232F
:1008CB0060020523E9C0E012078EEF60DD120764BA
:1008DB00BF2D04D2028003BF2B0912078EEF60CA13
:1008EB0012075AD0E0B40A028033B40802802EBF3C
:1008FB00302770027408C205C0E012075AD0E0BF5F
:10090B0078028003BF58160523D523028007D52311
:10091B0004D205800B741080197002740ABF000A90
:10092B00EFF8E4FCFDFEFF0209B5C0E0EF12073A59
:10093B00D0E0F9E4FCFDFEFFE9C0E0ECC0E0EDC067
:10094B00E0EEC0E0EFC0E012075AEFF8D0E0FFD0C6
:10095B00E0FED0E0FDD0E0FCD0F0E8604DB46100EB
:10096B004007B47B005002C2E524D0503DFA24F678
:10097B00500724F95034240AFAEAB5F000502BCF73
:10098B00A9F0A42FFF92D5E9C5F0CEA4A2D53EFEC7
:10099B0092D5E9C5F0CDA4A2D53DFD92D5E9C5F020
:1009AB00CCA4A2D53CFCC205808EE8C0E020042A72
:1009BB00200508052430020312066E1207141206D6
:1009CB0096052220000B20010DEE8FF012064F80B2
:1009DB000912067C8004EF1203FCD0E012073A02E6
:1009EB0007B22004101207141206960522E525857E
:1009FB0026F012064F80E81206D6087C5308BD5825
:100A0B0007F34C07EF4207CB4808C14F08C5440812
:100A1B001C4308B94908C555089E46089E45089EC3
:100A2B004707F72A09ED4E000007FBE49002B5F0EB
:100A3B00FBFAA3F0A3F0121F4D90000FEEF0A3EF03
:100A4B00F0E4FAFB74722BF58274013AF583E0FF44
:100A5B009002B5E0FE04F074AA2EF582E43401F5A1
:100A6B0083EFF00BBB00010AEB640F4A70D6E4FA7C
:100A7B00FB74A62BF58274023AF583E0FF9002B566
:100A8B00E0FE04F074AA2EF582E43401F583EFF056
:100A9B000BBB00010AEB640C4A70D690000BE0A371
:100AAB00E0FF9002B5E0FE04F074AA2EF582E43468
:100ABB0001F583EFF0900009E0A3E0FF9002B5E0B1
:100ACB00FE04F074AA2EF582E43401F583EFF09066
:100ADB00000DE0A3E0FF9002B5E0FE04F074AA2E37
:100AEB00F582E43401F583EFF090000FE0A3E0FF13
:100AFB009002B5E0FE04F074AA2EF582E43401F501
:100B0B0083EFF0900011E0A3E0FF9002B5E0FE044C
:100B1B00F074AA2EF582E43401F583EFF0E4FAFBCE
:100B2B00EB25E0FFEA33FE74152FF58274003EF5DA
:100B3B0083E0A3E0FF9002B5E0FE04F074AA2EF56B
:100B4B0082E43401F583EFF00BBB00010AEB641078
:100B5B004A70CDE49002B5F0FAFB74AA2BF58274BF
:100B6B00013AF583E0FF9002B5E0FE04F074292E04
:100B7B00F582E43401F583EFF00BBB00010AEB6463
:100B8B001B4A70D69001C5E0FF9002B5E0FD122420
:100B9B006D9002B5EFF0FD9001C6E0FF12246D9051
:100BAB0002B5EFF0FD9001C7E0FF12246D9002B586
:100BBB00EFF0FD9001C8E0FF12246D9002B5EFF04D
:100BCB00FD9001C9E0FF12246D9002B5EFF07A00A1
:100BDB007B2074AA2BF58274013AF583E0FF900217
:100BEB00B5E0FD12246D9002B5EFF00BBB00010ACE
:100BFB00EB64304A70DCE4FAFB74292BF582740148
:100C0B003AF583E0FF3395E0FE9002B7E02FF090CA
:100C1B0002B6E03EF00BBB00010AEB64454A70D90B
:100C2B009002B6E0A3E0FF9002B5E0FE04F0742959
:100C3B002EF582E43401F583EFF09002B5E0FF046A
:100C4B00F074292FF582E43401F583740AF09002D5
:100C5B00B5E0FF04F074292FF582E43401F583E449
:100C6B00F022E4900102F0A3F0120FC5D294C2A2BD
:100C7B00C2B49002C37403F0A37420F0A37403F006
:100C8B00A374E8F07F007E367D6E7C01121932D2A0
:100C9B00B49002C3E4F0A3740AF0A37403F0A3743A
:100CAB00E8F07F007E367D6E7C01121932121CE556
:100CBB009002C37403F0A374E8F0A37403F0A3745D
:100CCB00E8F07F007E367D6E7C01121932121C42D9
:100CDB00900011E4F0A374FFF0E4900095F0A3F002
:100CEB00900013F0A37405F012242E12175E9002DD
:100CFB00C3E4F0A3740AF0A37403F0A374E8F07FC9
:100D0B00007E367D6E7C01121932121D8412224434
:100D1B009001D4EEF0A3EFF012206412249F900206
:100D2B00C3E4F0A37414F0A37403F0A374E8F07F8E
:100D3B00007E367D6E7C011219321221639002B84F
:100D4B0074FFF0A37428F0A37475F0900013E0FF08
:100D5B00A3E09002BBCFF0A3EFF090023AE0FFA329
:100D6B00E09002BDCFF0A3EFF07B017A0179D612B0
:100D7B0000E37B017A0179D612252DD3900014E084
:100D8B009464900013E094004006E4F0A37405F023
:100D9B00900011E0FEA3E0FF4E60047D0180027D18
:100DAB0000C3EF947DEE940050047F0180027F001E
:100DBB00EF4D6021D390023BE0942C90023AE0641B
:100DCB008094815003020CF912229EE490023AF0B7
:100DDB00A3F0020CF990000DE07002A3E0701AC3AF
:100DEB0090023BE0940A90023AE0648094805003B6
:100DFB00020CF912229E020CF9C390023BE0941EE6
:100E0B0090023AE0648094805003020CF912229E07
:100E1B00020CF92290000DE4F0A37403F0E4FBFA4A
:100E2B00AF0312002EAC06AD07EB25E0FFEA33FE55
:100E3B0074862FF58274013EF583ECF0A3EDF0740C
:100E4B00862FF58274013EF583E0FCA3E0FDD3947D
:100E5B0080EC940C4037EB25E0FFEA33FE74042F53
:100E6B00F58274013EF583E4F0A304F074352FF59D
:100E7B008274003EF583E4F0A304F074152FF58221
:100E8B0074003EF583E4F0A304F0020FB6C3ED94B7
:100E9B00E8EC94034003020F61EB25E0FFEA33FE1D
:100EAB0074042FF58274013EF583E4F0A37402F011
:100EBB0074152FF58274003EF583E4F0A3F074559E
:100ECB002FF58274003EF583E0FEA3E04E6027EB26
:100EDB0025E0FFEA33FE74552FF58274003EF5834F
:100EEB00E4F0A3F074752FF58274003EF583E4F003
:100EFB00A304F0020FB6EB25E0FFEA33FE74752F67
:100F0B00F58274003EF583E475F00112040E7475DE
:100F1B002FF58274003EF583E0FEA3E0C39405EE4B
:100F2B00648094805003020FB6EB25E0FFEA33FE9A
:100F3B0074752FF58274003EF583E4F0A37405F00D
:100F4B0074352FF58274003EF583E4F0A3F0900026
:100F5B000DF0A3F08055EB25E0FFEA33FE74042F70
:100F6B00F58274013EF583E4F0A37403F074752FDE
:100F7B00F58274003EF583E4F0A3F074352FF5820F
:100F8B0074003EF583E4F0A37403F074552FF582DF
:100F9B0074003EF583E4F0A37403F074152FF5820F
:100FAB0074003EF583E4F0A37403F00BBB00010A5D
:100FBB00EB64104A6003020E2B227F06121414E41A
:100FCB00F59153B3FB43B404C292F59153ACFD536B
:100FDB00ADFDF59153ACDF53ADDFF59153ACBF5382
:100FEB00ADBFF59153AC7F53AD7FFFFE12261FE4CF
:100FFB00F59153ACEF43AD10F59153ACFB43AD04FE
:10100B00F59153B3EF43B4107591025389FB438AA7
:10101B0004F59153B1EF43B210F59153B1DF43B2E5
:10102B0020F59153B3DF43B420F59153B3BF43B4D1
:10103B0040F59153B1FB43B2047591025389DF43E1
:10104B008A20F59143AC0853ADF7F59143B10253A8
:10105B00B2FDF59143B10853B2F7F59153ACFE5382
:10106B00ADFE75910243A18075910253A1BF900211
:10107B00B91205980001C2007F007E367D6E7C019F
:10108B00121B8EE4F59153B3FE53B4FEF59143B1AD
:10109B000153B2FE75910243A10875910243A1045D
:1010AB0075910243A10275910243A1019002B9749B
:1010BB0002F0A31205980001C2007F007E367D6E00
:1010CB007C01121146E4F591539CFEF59143B180DE
:1010DB0053B27FF59153B1BF53B2BF9002B9F0A396
:1010EB001205980001C2007F007E367D6E7C0112D6
:1010FB00114653A8EFE4F59143C970F59153C8FE1F
:10110B0043C98043C90875CB4875CAF575CC48757A
:10111B00CDF5F591439B8043A88043C804F59153CB
:10112B00EF7FF59143F78075910143FE01F59153E4
:10113B00FFFE43B810F59153B7EF229002B512059D
:10114B008CE4F5919002B9E0146054147003021210
:10115B0038240260030212BF7598504389204387DD
:10116B0080E4F591438E10F59153C4DF7B10FAF9AF
:10117B00F89002B5E0FCA3E0FDA3E0FEA3E0FF12B4
:10118B0004E79002BAE0F8A3E0F9A3E0FAA3E0FBCE
:10119B001204E7EFF404F58D43884043A810227541
:1011AB00985043878053C4F8E4F59143C4207B10D7
:1011BB00FAF9F89002B5E0FCA3E0FDA3E0FEA3E092
:1011CB00FF1204E79002BAE0F8A3E0F9A3E0FAA358
:1011DB00E0FB1204E7C3E49FFFE49EFE74019DFD58
:1011EB00E49CFC78081205798FC6E47B10FAF9F8B9
:1011FB009002B5E0FCA3E0FDA3E0FEA3E0FF120428
:10120B00E79002BAE0F8A3E0F9A3E0FAA3E0FB123F
:10121B0004E7C3E49FFFE49EFE74019DFDE49CFC88
:10122B00EFE48FC5F59143C40843A8102275F8501D
:10123B0075C480E47B10FAF9F89002B5E0FCA3E0EA
:10124B00FDA3E0FEA3E0FF1204E79002BAE0F8A3CF
:10125B00E0F9A3E0FAA3E0FB1204E7C3E49FFFE489
:10126B009EFE74019DFDE49CFC78081205798FC6E7
:10127B00E47B10FAF9F89002B5E0FCA3E0FDA3E0E3
:10128B00FEA3E0FF1204E79002BAE0F8A3E0F9A393
:10129B00E0FAA3E0FB1204E7C3E49FFFE49EFE74B5
:1012AB00019DFDE49CFCEFE48FC5F59143C408F56B
:1012BB0091439C01227E007F647D007B017A007943
:1012CB00991205F67BFF7A27795C1224FF7BFF7A54
:1012DB0026798F7D027C0012184BEF64014E60055E
:1012EB007E007F01227E007F647D007B017A007986
:1012FB00991205F69002B874FFF0A37427F0A3744B
:10130B007AF09002A0E0F9A3E0FAA3E09002BBC947
:10131B00F0A3EAF0A3E9F0900124E0FFA3E0900230
:10132B00BECFF0A3EFF07B017A0179D61200E37BFD
:10133B00017A0179D61224FF7BFF7A27798F7D0200
:10134B007C0012164DEF64014E60057E007F042277
:10135B009002C3E4F0A37464F0A37403F0A374E8E5
:10136B00F07F007E367D6E7C011219327E007F6429
:10137B007D007B017A0079991205F69002B874FF13
:10138B00F0A37427F0A37498F0A37401F0A3740274
:10139B00F0A374A6F09002A3E0F9A3E0FAA3E09007
:1013AB0002BEC9F0A3EAF0A3E9F0900126E0F9A38D
:1013BB00E0FAA3E09002C1C9F0A3EAF0A3E9F07B45
:1013CB00017A0179D61200E37B017A0179D61224D6
:1013DB00FF7BFF7A2779B27D027C0012164DEF64FA
:1013EB00014E60057E007F05229002C3E4F0A374DA
:1013FB0064F0A37403F0A374E8F07F007E367D6E77
:10140B007C01121932E4FEFF22E4F591EF24F9601E
:10141B000C14600E2402700D75A638800875A6306A
:10142B00800375A630E4F591A2AF920DC2AF75C7DC
:10143B00AA75C755439F01A20D92AFF5A775AF04CF
:10144B00F591A2AF920DC2AF75C7AA75C75543A44C
:10145B0001A20D92AF85AE2205A6F591A2AF920D1A
:10146B00C2AF75C7AA75C75543A401A20D92AF852C
:10147B00AE23EF24F8600302150CE52225E0FFE410
:10148B0033FEE52354017C002FFFEC3EFEAD07ED50
:10149B0054C0F525ED543FF52474F22FFF74FF3E35
:1014AB00FE75AF0C75A601E4F5A7F591A2AF920DF1
:1014BB00C2AF75C7AA75C75543A401A20D92AFE57C
:1014CB00AE644B600BE5AE64526005E5AEB4532AD7
:1014DB00E524C3940F501BE5256440600BE52564A0
:1014EB00806005E525B4C01274F22FFF74FF3EFE39
:1014FB00800874FC2FFF74FF3EFEEEC313EF13F551
:10150B002275C7AA75C75585228475C7AA75C75595
:10151B00852385E4F591A2AF920DC2AF75C7AA756D
:10152B00C755539FFEA20D92AF5387EF227E007FCC
:10153B00647D007B017A0079991205F69002B874EC
:10154B00FFF0A37427F0A374BBF09000FDE0F9A3A8
:10155B00E0FAA3E09002BBC9F0A3EAF0A3E9F07BA9
:10156B00017A0179D61200E37B017A0179D6122434
:10157B00FF7BFF7A2779D07D027C0012164DEF643A
:10158B00014E60057E007F01229002C3E4F0A3743C
:10159B0064F0A37403F0A374E8F07F007E367D6ED5
:1015AB007C011219327E007F647D007B017A007909
:1015BB00991205F69002B874FFF0A37427F0A37488
:1015CB00D8F09001A6E0F9A3E0FAA3E09002BBC922
:1015DB00F0A3EAF0A3E9F0A3E4F0A37445F07B01D8
:1015EB007A0179D61200E37B017A0179D61224FFB6
:1015FB007BFF7A2779F47D027C0012184B7E007FEB
:10160B00647D007B017A0079991205F67B017A01E2
:10161B0079291224FF7BFF7A26798F7D027C0012B9
:10162B00184B9002C3E4F0A37464F0A37403F0A30B
:10163B0074E8F07F007E367D6E7C01121932E4FE79
:10164B00FF229002BAEBF0A3EAF0A3E9F0A3ECF0CF
:10165B00A3EDF0E4900102F0A3F0900097F0A3F05B
:10166B00900100F0A3F0900097E0FEA3E0FF4E7016
:10167B0011900097F0A37402F0E4F591439C0102E2
:10168B00171BEF64014E600302171B900097F0A32A
:10169B00F0900100F0A3F09002BAE0F9A3E0FAA3F6
:1016AB00E09002C2C9F0A3EAF0A3E9F07B017A0053
:1016BB007999121A15E94A4B600AE4F591539CFE8D
:1016CB00FE7F01229002C274FFF0A37426F0A37474
:1016DB008FF07B017A007999121A15E94A4B600A4F
:1016EB00E4F591539CFEFE7F01229002C274FFF041
:1016FB00A37426F0A3748BF07B017A007999121AEC
:10170B0015E94A4B600AE4F591539CFEFE7F0222D9
:10171B009002C3E4F0A3740AF0A37403F0A374E87B
:10172B00F07F007E367D6E7C011219329002BDE097
:10173B00FEA3E0FFC3900103E09FEE6480F89001ED
:10174B0002E06480985003021671E4F591539CFEFD
:10175B00FEFF227E007F647D007B017A0079991267
:10176B0005F67BFF7A2679FE1224FF7BFF7A26791A
:10177B008F7D057C0012184BEF64014E70097B01C5
:10178B007A00799912252D7E007F647D007B017A8A
:10179B000079991205F67BFF7A27790B1224FF7BD0
:1017AB00FF7A26798F7D057C0012184BEF64014E72
:1017BB0070097B017A00799912252D7E007F647D5B
:1017CB00007B017A0079991205F67BFF7A27792A3B
:1017DB001224FF7BFF7A26798F7D057C0012184B34
:1017EB00EF64014E70097B017A00799912252D7EE9
:1017FB00007F647D007B017A0079991205F67BFFEF
:10180B007A2779391224FF7BFF7A2779487D057C6B
:10181B000012184BEF64014E70097B017A00799925
:10182B0012252D9002C3E4F0A37464F0A37403F0AB
:10183B00A374E8F07F007E367D6E7C011219322294
:10184B009002B5EBF0A3EAF0A3E9F0A3ECF0A3ED63
:10185B00F0E4900102F0A3F0900097F0A3F0900158
:10186B0000F0A3F0900097E0FEA3E0FF4E70109005
:10187B000097F0A37402F0E4F591439C018065EFAF
:10188B0064014E705F900097F0A3F0900100F0A3FD
:10189B00F09002B5E0F9A3E0FAA3E09002C2C9F020
:1018AB00A3EAF0A3E9F07B017A007999121A15E902
:1018BB004A4B600AE4F591539CFEFE7F0122900295
:1018CB00C274FFF0A37426F0A3748BF07B017A0033
:1018DB007999121A15E94A4B600AE4F591539CFE6B
:1018EB00FE7F02229002C3E4F0A3740AF0A37403F8
:1018FB00F0A374E8F07F007E367D6E7C0112193206
:10190B009002B8E0FEA3E0FFC3900103E09FEE64FA
:10191B0080F8900102E0648098500302186FE4F5A0
:10192B0091539CFEFEFF229002BF12058CE4F591B1
:10193B00F591538EF7F5915389F04389017B407AEA
:10194B0042790FF89002BFE0FCA3E0FDA3E0FEA3F9
:10195B00E0FF1204E7A804A905AA06AB079002C58D
:10196B00E0FEA3E0FFE4FCFD12045CE47B0CFAF95F
:10197B00F81204E7C374FF9FFF74FF9EFEE49DFD06
:10198B00E49CFCEFE49002C7EFF07B407A42790FC6
:10199B0078009002BFE0FCA3E0FDA3E0FEA3E0FF14
:1019AB001204E7A804A905AA06AB079002C5E0FE3E
:1019BB00A3E0FFE4FCFD12045CE47B0CFAF9F812E3
:1019CB0004E7C374FF9FFF74FF9EFEE49DFDE49C40
:1019DB00FC78081205799002C3E07002A3E0602442
:1019EB009002C7E0F58A8F8C438810308DFD5388A9
:1019FB00DF5388EF9002C4E024FFF09002C3E03481
:101A0B00FFF080D2E4F58AF58C229002BFEBF0A3B5
:101A1B00EAF0A3E9F0A3E0FBA3E0FAA3E0F91203D9
:101A2B00E37003021AC19002BFE0FBA3E0FAA3E04C
:101A3B00F91203E37003021ACD9002C2E0F9A3E09E
:101A4B00FAA3E0A3C9F0A3EAF0A3E9F09002BFA3C5
:101A5B00E0FAA3E0F99002C8EBF0A3EAF0A3E9F0F7
:101A6B009002C5E0FBA3E0FAA3E0F91203E3FF60E9
:101A7B00269002C8E0FBA3E0FAA3E0F91203E36FA0
:101A8B0070159002C675F00112040E9002C9E47530
:101A9B00F00112040E80C99002C5E0FBA3E0FAA38B
:101AAB00E0F91203E37002800D9002C0E475F001BF
:101ABB0012040E021A319002BFE0FBA3E0FAA3E07E
:101ACB00F9227B007A007900229002B5EBF0A3EAB1
:101ADB00F0A3E9F0A3ECF0A3EDF0E4900102F0A386
:101AEB00F0900097F0A3F0900100F0A3F090009716
:101AFB00E0FEA3E0FF4E700D900097F0A37402F090
:101B0B0043A810803DEF64014E7037900097F0A30F
:101B1B00F0900100F0A3F09002B5E0F9A3E0FAA376
:101B2B00E09002C2C9F0A3EAF0A3E9F07B017A00CE
:101B3B007999121A15E94A4B600853A8EF7E007F7A
:101B4B0001229002C3E4F0A3740AF0A37403F0A380
:101B5B0074E8F07F007E367D6E7C011219329002A4
:101B6B00B8E0FEA3E0FFC3900103E09FEE6480F8B2
:101B7B00900102E06480985003021AF853A8EFE436
:101B8B00FEFF229002B512058C75910243F101758F
:101B9B00910243F20175910243F20275910253F1E6
:101BAB00EF75910253F1F7E47B08FAF9F89002B55F
:101BBB00E0FCA3E0FDA3E0FEA3E0FF1204E790022C
:101BCB00B9E0F8A3E0F9A3E0FAA3E0FB1204E7EF16
:101BDB0024FFFFEE34FFFEED34FFFDEC34FFFCEF92
:101BEB00E48FDB53DCF07B08FAF9F89002B5E0FCEC
:101BFB00A3E0FDA3E0FEA3E0FF1204E79002B9E02F
:101C0B00F8A3E0F9A3E0FAA3E0FB1204E7EF24FF4B
:101C1B00FFEE34FFFEED34FFFDEC34FFFC780812D1
:101C2B000579EF540F42DC75910243F24053F2CF2A
:101C3B0075910243F18022E4FFFE7BFF7A2679C483
:101C4B001224FF7B017A02793C9002B9E4F0A37471
:101C5B0014F07D0A1220E47B017A02793C9002B9E0
:101C6B00E4F0A37414F07D0A1220E4E4FEFF743C4C
:101C7B002FF58274023EF583E0FD74722FF58274AA
:101C8B00013EF583EDF00FBF00010EEF640F4E70B8
:101C9B00DD9002B874FFF0A37426F0A374CDF0A30B
:101CAB007401F0A37402F0A3743CF07B017A017908
:101CBB00D61200E37B017A0179D612252D9002C34F
:101CCB00E4F0A37414F0A37403F0A374E8F07F00A2
:101CDB007E367D6E7C01121932227E007F647D0080
:101CEB007B017A0079991205F67BFF7A28791A7DA8
:101CFB00057C00121AD4EF64014E70349002C2744A
:101D0B00FFF0A37428F0A3741DF07B017A0079997E
:101D1B00121A159002BD74FFF0A37428F0A374215E
:101D2B00F0A37401F0A37402F0A374A6F012079D44
:101D3B009002C3E4F0A37464F0A37403F0A374E8FB
:101D4B00F07F007E367D6E7C011219329002B874E2
:101D5B00FFF0A37428F0A37427F0A37401F0A3740D
:101D6B0002F0A374A6F07B017A0179D61200E37B13
:101D7B00017A0179D612252D22122391AB07AA06DF
:101D8B001223E09002B5EEF0A3EFF0122342AD0761
:101D9B00AC06E490000BF0A3F0EB2474FFEA34F5EF
:101DAB00FEEF7803CEC313CE13D8F9FF900009EEE4
:101DBB00F0A3EFF0D39464EE94004009900009E493
:101DCB00F0A37464F0C39002B6E094C49002B5E043
:101DDB0094095004C2B28002D2B2C3EB94ACEA9421
:101DEB000D5002C2A2D3ED9474EC940E40089000F7
:101DFB000CE04402F022C3ED9440EC9406500B909F
:101E0B00000CE04401F04408F02290000CE0440187
:101E1B00F04404F022787FE4F6D8FD9000007FFFB9
:101E2B007E08E4F0A3DFFCDEFA758126021E750244
:101E3B000C6DE493A3F8E493A34003F68001F2083E
:101E4B00DFF48029E493A3F85407240CC8C333C4EC
:101E5B00540F4420C8834004F456800146F6DFE457
:101E6B00800B01020408102040809022F2E47E01D6
:101E7B009360BCA3FF543F30E509541FFEE493A3CA
:101E8B0060010ECF54C025E060A840B8E493A3FADC
:101E9B00E493A3F8E493A3C8C582C8CAC583CAF068
:101EAB00A3C8C582C8CAC583CADFE9DEE780BEC046
:101EBB00E0C083C082C0D075D000C004C005C0068E
:101ECB00C007C09130F85FAF9AEF640D60047E01DC
:101EDB0080027E00D3EF6480948040047D018002F9
:101EEB007D00ED5E6022900100E0FCA3E02499F5FB
:101EFB008274003CF583EFF0900101E004F0700672
:101F0B00900100E004F0801BEFB40D17D39001019A
:101F1B00E09400900100E094004008900097E4F0FA
:101F2B00A304F053F8FE30F90620090353F8FDD053
:101F3B0091D007D006D005D004D0D0D082D083D09A
:101F4B00E0329002B8E4F0A37465F07E007F647D0C
:101F5B00007B017A0079991205F67BFF7A2679D1FD
:101F6B001224FF7BFF7A2679DA7D057C0012164D51
:101F7B00EF64014E70349002C274FFF0A37426F02C
:101F8B00A374DFF07B017A007999121A159002BDC8
:101F9B0074FFF0A37426F0A374E5F0A37401F0A30F
:101FAB007402F0A374B8F012079D9002C3E4F0A37F
:101FBB007464F0A37403F0A374E8F07F007E367DA5
:101FCB006E7C011219329002B8E0FEA3E0FF22C032
:101FDB00E0C083C082C0D075D000C004C005C0066D
:101FEB00C007C09130985FAF99EF640D60047E011C
:101FFB0080027E00D3EF6480948040047D018002D8
:10200B007D00ED5E6022900100E0FCA3E02499F5D9
:10201B008274003CF583EFF0900101E004F0700650
:10202B00900100E004F0801BEFB40D17D390010179
:10203B00E09400900100E094004008900097E4F0D9
:10204B00A304F05398FED091D007D006D005D0044E
:10205B00D0D0D082D083D0E03290000DE0FEA3E050
:10206B00FF4E7050900004E07002A3E0600CD2B6FB
:10207B00D292900000E4F0A304F020812F90000294
:10208B00E07004A3E064017023900000E07002A3F1
:10209B00E0600DC2B6C292E4900000F0A3F0800C99
:1020AB00D2B6D292900000E4F0A304F0D2B7D2B52E
:1020BB00D2B18011C2B6C292C2B7C2B6C2B1E4905D
:1020CB000000F0A3F0A281E4FD33900002CDF0A359
:1020DB00EDF0A3EEF0A3EFF0229002B8EDF090023A
:1020EB00BEEBF0A3EAF0A3E9F0E49002BBF0A3F09F
:1020FB009002B9E0FEA3E0FFC39002BCE09FEE6448
:10210B0080F89002BBE0648098503D7F011225C49B
:10211B009002BDEFF09002B8E06F602C9002BDE032
:10212B00FFA3E0FBA3E0FAA3E0F9EF1203FC90029C
:10213B00BFE475F00112040E9002BCE004F07006CF
:10214B009002BBE004F080A89002BEE0FBA3E0FA93
:10215B00A3E0F9E41203FC227E007F647D007B0187
:10216B007A0079991205F67BFF7A28790D7D027C2E
:10217B0000121AD4EF64014E70349002C274FFF057
:10218B00A37428F0A37410F07B017A007999121ACA
:10219B00159002BD74FFF0A37428F0A37414F0A380
:1021AB007401F0A37400F0A37411F012079D900258
:1021BB00C3E4F0A37464F0A37403F0A374E8F07F9A
:1021CB00007E367D6E7C0112193222C0E0C0F0C059
:1021DB0083C082C0D075D000C000C002C003C00451
:1021EB00C005C006C007C09153C87F90023BE004F6
:1021FB00F0700690023AE004F0900103E004F070F6
:10220B0006900102E004F0120E1F90000DE0700228
:10221B00A3E07006D284B2858004D285B284D091BB
:10222B00D007D006D005D004D003D002D000D0D038
:10223B00D082D083D0F0D0E032E4F59143B3025397
:10224B00B4FDF59153E83043E807F5F643F68043C8
:10225B00E10153E87F43E84030EFFDA2B5B392B5FF
:10226B00AFC3EF75F010A4FFE5C2540F7C002FFF36
:10227B00EC35F0FEE4F59153E1FEF5F6759102F5C0
:10228B0099D3EF9440EE940640057E007F0122E443
:10229B00FEFF221212C0EF4E700B7BFF7A28792FB4
:1022AB0012252D80097BFF7A28793F12252D1215D7
:1022BB0038EF4E701A7BFF7A28795212252D900039
:1022CB0013E4F0A37405F0E490023AF0A3F0227B40
:1022DB00FF7A28796212252D900014E02405F090E6
:1022EB000013E03400F02242010200004302A0FF81
:1022FB002634420124075C4302A3FF2648430126F0
:10230B00FF26554301A6FF26664300FDFF267442B8
:10231B000100000042009700004200000000420054
:10232B0002000142000400004201D2000142023AC5
:10233B000000C109C10A00759102438910538AEF4D
:10234B00E4F59153E83043E80C759102F599439904
:10235B0010F59143E10153E87F43E84030EFFDA2D4
:10236B00B5B392B5AFC3EF75F010A4FFE5C2540F30
:10237B007C002FFFEC35F0FEE4F59153E1FEF5F612
:10238B00759102F59922759102438908538AF7E4F6
:10239B00F59153E83043E80B759102F59943990891
:1023AB00F59143E10153E87F43E84030EFFDA2B5DF
:1023BB00B392B5AFC3EF75F010A4FFE5C2540F7C19
:1023CB00002FFFEC35F0FEE4F59153E1FEF5F675C9
:1023DB009102F59922E4F59143B30853B4F7F591C3
:1023EB0053E83043E80D759102F599439920F59127
:1023FB0043E10153E87F43E84030EFFDA2B5B392D0
:10240B00B5AFC3EF75F010A4FFE5C2540F7C002FDE
:10241B00FFEC35F0FEE4F59153E1FEF5F675910214
:10242B00F599227E007F647D007B017A00799912F9
:10243B0005F67BFF7A2679921224FF7BFF7A2679A9
:10244B008F7D147C0012184BEF64014E700A7BFFDA
:10245B007A26799912252D227BFF7A2679A41225CB
:10246B002D22AC07ECC4540FFF12260DAE050D74D4
:10247B00292EF582E43401F583EFF0EC540FFF12B3
:10248B00260DAE050D74292EF582E43401F583EF8C
:10249B00F0AF0522120A367BFF7A2879071224D176
:1024AB007B017A0179291224D19002C3E4F0A37441
:1024BB000AF0A37403F0A374E8F07F007E367D6E00
:1024CB007C01121932229002B5EBF0A3EAF0A3E9DA
:1024DB00F09002B5E0FBA3E0FAA3E0F91203E3FDF1
:1024EB006011E4FF1225809002B6E475F00112042E
:1024FB000E80DE229002BAEBF0A3EAF0A3E9F09093
:10250B0002BAE0FBA3E0FAA3E0F91203E3FD6011CA
:10251B007F011225809002BBE475F00112040E803E
:10252B00DE229002B5EBF0A3EAF0A3E9F09002B53E
:10253B00E0FBA3E0FAA3E0F91203E3FF600F120044
:10254B00039002B6E475F00112040E80E022EFB4A2
:10255B000A07740D122564740A309811A899B813E0
:10256B000CC2983098FDA899C298B811F63099FD15
:10257B00C299F59922C091E4F591EF14600E0470A5
:10258B0014C2998D9920990D80FB8009C2F9AF0572
:10259B008F9A30F9FDD09122EF1392A5EFA2E7139A
:1025AB00139295EFA2E713A2E7131392827803EF2E
:1025BB00A2E713D8FB13929622C091E4F591EF1486
:1025CB00600C0470103098FDAE99C298800730F8FB
:1025DB00FDAE9AC2F8D091AF0622100F0B12001766
:1025EB00BF0D027F0A0225599002EBE0FF22EFC3D9
:1025FB0094094005EF940E4004EFB42003D38001FF
:10260B00C3227E00EF540F24F6F582EE3427F583B8
:10261B00E493FF22EE4F24FF92B792B692B592B19C
:10262B00229002EBEFF0D20F22226465762D6170BF
:10263B00692E6C63746563682E766E2200226C6360
:10264B00746563685F6465762200226C63746563EE
:10265B00685F4445564031323322002273776D2F29
:10266B0067342F646174612200226D6D6D2F3934D4
:10267B00453638363246314541302F636D64220082
:10268B00455252004F4B00415445300D0A004563F3
:10269B00686F4F4646204F4B004563686F4F464669
:1026AB00204661696C004154490D0A004765744925
:1026BB006E666F204661696C0041542B47534E0D7B
:1026CB000A0025730A0041542B4353510D0A004352
:1026DB0053513A002B4353513A002B4353513A2059
:1026EB0025640041542B435245473F0D0A0043528A
:1026FB0045470041542B43474154543D310D0A008B
:10270B0041542B434744434F4E543D312C224950A7
:10271B00222C226469616C6F676262220D0A004190
:10272B00542B43474143543D312C310D0A00415446
:10273B002B434750414444523D310D0A004347500F
:10274B00414444520041542B515253543D310D0AD4
:10275B000041542B514D544346473D2272656376DD
:10276B002F6D6F6465222C302C302C310D0A0041FB
:10277B00542B514D544F50454E3D302C25732C2529
:10278B00640D0A00514D544F50454E3A0041542BA5
:10279B00514D54434F4E4E3D302C222573222C2548
:1027AB00732C25730D0A00514D54434F4E4E3A0076
:1027BB0041542B514D545355423D302C312C2573E4
:1027CB002C300D0A00514D545355423A0041542BB5
:1027DB00514D5450554245583D302C312C312C30F5
:1027EB002C25732C25640D0A003E00303132333416
:1027FB0035363738394142434445460044617461AC
:10280B003A0057460057463A0057463A2564004966
:10281B00440049443A0049443A25730049443A2557
:10282B00730D0A004F70656E204D71747420344720
:10283B00204F4B004F70656E204D717474203447E0
:10284B002046616C73650053656E64204D71747422
:10285B00203447204F4B0053656E64204D717474C8
:10286B002034472046616C73650053503A25642031
:07287B0020202025640A0063
:00000001FF
