:1000000002099CC0E0C083C082C09130980BD20A24
:10001000900028E599F05398FED091D082D083D0FB
:02002000E032CC
:100023000200037F061207959000047402F0A312E6
:10003300051F0001C2007F007E367D6E7C01120623
:100043001B43F802D2097BFF7A0A796B1200E9534A
:10005300F8FDC2099000047401F0A3742CF0A3749A
:1000630003F0A374E8F07F007E367D6E7C011208F6
:04007300B980CE2260
:10007B00020A36E5082403F582E43400F583E00533
:10008B000822900000300703900003E475F0011282
:10009B0005D502057D2000E97F2ED2008018EF5494
:1000AB000F2490D43440D4FF30040BEF24BFB41A88
:1000BB000050032461FFE50960021509050CE50CEE
:1000CB007002050B30070E900000E475F00112056D
:1000DB00D5EF0205C3020A5E7403D2078003E4C2A4
:1000EB0007F5089000001205ECE4F509F50BF50C8B
:1000FB00E50960077F201200C180F5750AFFC20178
:10010B00C200C202C203C205C206C20812008DFFA2
:10011B00700D3007057F001200D2AF0CAE0B22B46E
:10012B00255FC2D5C20412008DFF24D0B40A005043
:10013B001A75F00A780930D50508B6FF0106C6A472
:10014B0026F620D5047002D20380D924CFB41A002E
:10015B00EF5004C2E5D2040202D3D20180C6D20012
:10016B0080C0D20280BCD2D580BAD20580B47F20A9
:10017B001200C12002077401B5090040F112007E84
:10018B00FF1200C10200FBD208D206809512007E3E
:10019B00FB12007EFA12007EF94A4B700679A47AA4
:1001AB00037BFF20022EE509602A7E008E82758379
:1001BB000012059660060EEE650A70F0C2D5EBC014
:1001CB00E0EAC0E0E9C0E0EE12031AD0E0F9D0E0BB
:1001DB00FAD0E0FB12057DFF60AAEBC0E0EAC0E0BD
:1001EB00E9C0E01200C1D0E02401F9D0E03400FAFC
:1001FB00D0E0FBE50A0460DCD50AD980877BFF7A67
:10020B00037916D202809C791080027908C206C24B
:10021B00088008D2D5790A8004790AC2D5E50A0488
:10022B007002F50AE4FAFDFEFF12007EFC7B08204B
:10023B00011312007EFD7B1030000A12007EFE12AD
:10024B00007EFF7B20EC3382D592D55013C3E43074
:10025B0000069FFFE49EFEE42001039DFDE49CFC51
:10026B00E4CBF8C201EC700CCFCECDCCE824F8F87F
:10027B0070F38017C3EF33FFEE33FEED33FDEC333A
:10028B00FCEB33FB994002FB0FD8E9EB300105F88F
:10029B00D0E0C448B201C0E00AEC4D4E4F78207B51
:1002AB000070C2EAB50A0040BCC0E012031CD0F0DB
:1002BB00D0E0200104C4C0E0C4B201C0F01200AA17
:1002CB00D0F0D5F0EB0200FB1205F50198530212AA
:1002DB005801694C01654202164F021E44021E4929
:1002EB00017E4302245502084602084502084703D3
:1002FB00C450016D2D01712E01942B0175230192B8
:10030B002003AD2A012D480000018C3F3F3F0079AF
:10031B000AA2D5200314300509B910020404B90848
:10032B000104A2D52006025001042002689202B5F6
:10033B0009005034C0E07F203003197F30A20272D5
:10034B00067205500F120373C202C206C205C20821
:10035B007F30800F300503E9C0E01200C130050388
:10036B00D0E0F9D0E0B509CC3005177F30B9100CCF
:10037B001200C17F583004077F788003B90803123D
:10038B0000C13002057F2D0200C17F202008F87FBD
:10039B002B2006F322920280CF286E756C6C2900FD
:1003AB00D20112007E3001F8C201780930D5010864
:1003BB00F602012D2D5043495812007E2403B4053B
:1003CB00004001E49003BF931200B2743A1200B2E2
:1003DB00D203750904020212E88FF0A4CC8BF0A4AF
:1003EB002CFCE98EF0A42CFC8AF0EDA42CFCEA8EFC
:1003FB00F0A4CDA8F08BF0A42DCC3825F0FDE98F1F
:10040B00F0A42CCD35F0FCEB8EF0A4FEA9F0EB8F15
:10041B00F0A4CFC5F02ECD39FEE43CFCEAA42DCEE2
:10042B0035F0FDE43CFC2275F008758200EF2FFFE0
:10043B00EE33FECD33CDCC33CCC58233C5829BEDB1
:10044B009AEC99E58298400CF582EE9BFEED9AFDB5
:10045B00EC99FC0FD5F0D6E4CEFBE4CDFAE4CCF965
:10046B00A88222B800C1B90059BA002DEC8BF084D8
:10047B00CFCECDFCE5F0CBF97818EF2FFFEE33FEA6
:10048B00ED33FDEC33FCEB33FB10D703994004EB5E
:10049B0099FB0FD8E5E4F9FA227818EF2FFFEE332A
:1004AB00FEED33FDEC33FCC933C910D7059BE99A3C
:1004BB004007EC9BFCE99AF90FD8E0E4C9FAE4CCCD
:1004CB00FB2275F010EF2FFFEE33FEED33FDCC3337
:1004DB00CCC833C810D7079BEC9AE899400AED9B20
:1004EB00FDEC9AFCE899F80FD5F0DAE4CDFBE4CCFF
:1004FB00FAE4C8F922E8600FECC313FCED13FDEE30
:10050B0013FEEF13FFD8F122ECF0A3EDF0A3EEF006
:10051B00A3EFF022A8828583F0D083D08212053618
:10052B00120536120536120536E473E493A3C58320
:10053B00C5F0C583C8C582C8F0A3C583C5F0C58304
:10054B00C8C582C822D083D082F8E493701274019C
:10055B0093700DA3A393F8740193F5828883E473CE
:10056B00740293B5F0067403936860E9A3A3A3A385
:10057B0080D8BB010689828A83E0225002E722BB26
:10058B00FE02E32289828A83E49322BB010CE5827B
:10059B0029F582E5833AF583E0225006E92582F8B6
:1005AB00E622BBFE06E92582F8E222E58229F582E6
:1005BB00E5833AF583E49322BB010689828A83F0B3
:1005CB00225002F722BBFE01F322F8E0FBA3A3E0CB
:1005DB00F925F0F0E582158270021583E0FA38F008
:1005EB0022EBF0A3EAF0A3E9F022D083D082F8E467
:1005FB00937012740193700DA3A393F8740193F588
:10060B00828883E4737402936860EFA3A3A380DFF3
:10061B00900000120513E4F591900004E01460546F
:10062B0014700302070D240260030207947598509F
:10063B00438920438780E4F591438E10F59153C491
:10064B00DF7B10FAF9F8900000E0FCA3E0FDA3E0DB
:10065B00FEA3E0FF12046E900005E0F8A3E0F9A3FF
:10066B00E0FAA3E0FB12046EEFF404F58D4388402F
:10067B0043A8102275985043878053C4F8E4F59132
:10068B0043C4207B10FAF9F8900000E0FCA3E0FDD6
:10069B00A3E0FEA3E0FF12046E900005E0F8A3E0D8
:1006AB00F9A3E0FAA3E0FB12046EC3E49FFFE49E00
:1006BB00FE74019DFDE49CFC78081205008FC6E4D6
:1006CB007B10FAF9F8900000E0FCA3E0FDA3E0FE3C
:1006DB00A3E0FF12046E900005E0F8A3E0F9A3E09D
:1006EB00FAA3E0FB12046EC3E49FFFE49EFE7401C9
:1006FB009DFDE49CFCEFE48FC5F59143C40843A832
:10070B00102275F85075C480E47B10FAF9F890004C
:10071B0000E0FCA3E0FDA3E0FEA3E0FF12046E905B
:10072B000005E0F8A3E0F9A3E0FAA3E0FB12046EE6
:10073B00C3E49FFFE49EFE74019DFDE49CFC7808DE
:10074B001205008FC6E47B10FAF9F8900000E0FC6C
:10075B00A3E0FDA3E0FEA3E0FF12046E900005E012
:10076B00F8A3E0F9A3E0FAA3E0FB12046EC3E49F45
:10077B00FFE49EFE74019DFDE49CFCEFE48FC5F548
:10078B009143C408F591439C0122E4F591EF24F9C0
:10079B00600C14600E2402700D75A638800875A6C7
:1007AB0030800375A630E4F591A2AF920CC2AF7501
:1007BB00C7AA75C755439F01A20C92AFF5A775AF9A
:1007CB0004F591A2AF920CC2AF75C7AA75C755437A
:1007DB00A401A20C92AF85AE0805A6F591A2AF922B
:1007EB000CC2AF75C7AA75C75543A401A20C92AF33
:1007FB0085AE09EF24F8600302088DE50825E0FFBC
:10080B00E433FEE50954017C002FFFEC3EFEAD07FF
:10081B00ED54C0F50BED543FF50A74F22FFF74FF46
:10082B003EFE75AF0C75A601E4F5A7F591A2AF924C
:10083B000CC2AF75C7AA75C75543A401A20C92AFE2
:10084B00E5AE644B600BE5AE64526005E5AEB453A8
:10085B002AE50AC3940F501BE50B6440600BE50BB4
:10086B0064806005E50BB4C01274F22FFF74FF3E79
:10087B00FE800874FC2FFF74FF3EFEEEC313EF13D4
:10088B00F50875C7AA75C75585088475C7AA75C7B6
:10089B0055850985E4F591A2AF920CC2AF75C7AA35
:1008AB0075C755539FFEA20C92AF5387EF22900052
:1008BB0000120513E4F591F591538EF7F5915389D9
:1008CB00F04389017B407A42790FF8900000E0FCFD
:1008DB00A3E0FDA3E0FEA3E0FF12046EA804A905AC
:1008EB00AA06AB07900006E0FEA3E0FFE4FCFD12B6
:1008FB0003E3E47B0CFAF9F812046EC374FF9FFF59
:10090B0074FF9EFEE49DFDE49CFCEFE4900008EF79
:10091B00F07B407A42790F7800900000E0FCA3E076
:10092B00FDA3E0FEA3E0FF12046EA804A905AA062E
:10093B00AB07900006E0FEA3E0FFE4FCFD1203E32F
:10094B00E47B0CFAF9F812046EC374FF9FFF74FF7B
:10095B009EFEE49DFDE49CFC7808120500900004CB
:10096B00E07002A3E06024900008E0F58A8F8C43CE
:10097B008810308DFD5388DF5388EF900005E024FD
:10098B00FFF0900004E034FFF080D2E4F58AF58CA0
:10099B0022787FE4F6D8FD9000007FFF7E08E4F01C
:1009AB00A3DFFCDEFA7581210209F1020026E49334
:1009BB00A3F8E493A34003F68001F208DFF4802947
:1009CB00E493A3F85407240CC8C333C4540F442036
:1009DB00C8834004F456800146F6DFE4800B010225
:1009EB00040810204080900A66E47E019360BCA34B
:1009FB00FF543F30E509541FFEE493A360010ECF73
:100A0B0054C025E060A840B8E493A3FAE493A3F89C
:100A1B00E493A3C8C582C8CAC583CAF0A3C8C5825C
:100A2B00C8CAC583CADFE9DEE780BEC0E0C083C0A9
:100A3B0082C09130F80B53F8FE900029E59AF0D262
:100A4B000B30F90620090353F8FDD091D082D083E7
:100A5B00D0E03230F9FDC2F98F9A22C109C10A00E8
:100A6B000A2068656C6C6F20776F726C6420212193
:020A7B00210058
:00000001FF
