:100000000204B6C0E0C083C082C09130980BD20118
:10001000900009E599F05398FED091D082D083D01A
:02002000E032CC
:10002300020003C0E0C083C082C09130F80B53F8D4
:10003300FE90000AE59AF0D20230F906200003533D
:10004300F8FDD091D082D083D0E032C091E4F59115
:10005300EF14600E047014C2998D9920990D80FBE2
:100063008009C2F9AF058F9A30F9FDD09122C10002
:03007300C10100C8
:10007B00020026E88FF0A4CC8BF0A42CFCE98EF0C8
:10008B00A42CFC8AF0EDA42CFCEA8EF0A4CDA8F0F5
:10009B008BF0A42DCC3825F0FDE98FF0A42CCD35B9
:1000AB00F0FCEB8EF0A4FEA9F0EB8FF0A4CFC5F023
:1000BB002ECD39FEE43CFCEAA42DCE35F0FDE43C1C
:1000CB00FC2275F008758200EF2FFFEE33FECD3367
:1000DB00CDCC33CCC58233C5829BED9AEC99E582AE
:1000EB0098400CF582EE9BFEED9AFDEC99FC0FD53A
:1000FB00F0D6E4CEFBE4CDFAE4CCF9A88222B8002A
:10010B00C1B90059BA002DEC8BF084CFCECDFCE5F4
:10011B00F0CBF97818EF2FFFEE33FEED33FDEC3318
:10012B00FCEB33FB10D703994004EB99FB0FD8E59D
:10013B00E4F9FA227818EF2FFFEE33FEED33FDECE6
:10014B0033FCC933C910D7059BE99A4007EC9BFCDC
:10015B00E99AF90FD8E0E4C9FAE4CCFB2275F01068
:10016B00EF2FFFEE33FEED33FDCC33CCC833C8108D
:10017B00D7079BEC9AE899400AED9BFDEC9AFCE8BB
:10018B0099F80FD5F0DAE4CDFBE4CCFAE4C8F92208
:10019B00E8600FECC313FCED13FDEE13FEEF13FF42
:1001AB00D8F122ECF0A3EDF0A3EEF0A3EFF022A830
:1001BB00828583F0D083D0821201D11201D112013A
:1001CB00D11201D1E473E493A3C583C5F0C583C8F1
:1001DB00C582C8F0A3C583C5F0C583C8C582C82234
:1001EB00D083D082F8E4937012740193700DA3A3A3
:1001FB0093F8740193F5828883E473740293B5F0DA
:10020B00067403936860E9A3A3A3A380D8900000AE
:10021B001201AEE4F591900004E0146054147003E5
:10022B0002030A240260030203917598504389204C
:10023B00438780E4F591438E10F59153C4DF7B1017
:10024B00FAF9F8900000E0FCA3E0FDA3E0FEA3E0C8
:10025B00FF120109900005E0F8A3E0F9A3E0FAA36F
:10026B00E0FB120109EFF404F58D43884043A8101D
:10027B002275985043878053C4F8E4F59143C4200A
:10028B007B10FAF9F8900000E0FCA3E0FDA3E0FE80
:10029B00A3E0FF120109900005E0F8A3E0F9A3E049
:1002AB00FAA3E0FB120109C3E49FFFE49EFE740175
:1002BB009DFDE49CFC780812019B8FC6E47B10FA31
:1002CB00F9F8900000E0FCA3E0FDA3E0FEA3E0FF43
:1002DB00120109900005E0F8A3E0F9A3E0FAA3E00E
:1002EB00FB120109C3E49FFFE49EFE74019DFDE434
:1002FB009CFCEFE48FC5F59143C40843A81022750D
:10030B00F85075C480E47B10FAF9F8900000E0FC1B
:10031B00A3E0FDA3E0FEA3E0FF120109900005E0BE
:10032B00F8A3E0F9A3E0FAA3E0FB120109C3E49FF1
:10033B00FFE49EFE74019DFDE49CFC780812019B7A
:10034B008FC6E47B10FAF9F8900000E0FCA3E0FD07
:10035B00A3E0FEA3E0FF120109900005E0F8A3E083
:10036B00F9A3E0FAA3E0FB120109C3E49FFFE49EAB
:10037B00FE74019DFDE49CFCEFE48FC5F59143C435
:10038B0008F591439C0122E4F591EF24F9600C14DC
:10039B00600E2402700D75A638800875A630800398
:1003AB0075A630E4F591A2AF9203C2AF75C7AA75DB
:1003BB00C755439F01A20392AFF5A775AF04F59103
:1003CB00A2AF9203C2AF75C7AA75C75543A401A2CA
:1003DB000392AF85AE0805A6F591A2AF9203C2AF0B
:1003EB0075C7AA75C75543A401A20392AF85AE0981
:1003FB00EF24F8600302048AE50825E0FFE433FEEE
:10040B00E50954017C002FFFEC3EFEAD07ED54C017
:10041B00F50BED543FF50A74F22FFF74FF3EFE759A
:10042B00AF0C75A601E4F5A7F591A2AF9203C2AF8D
:10043B0075C7AA75C75543A401A20392AFE5AE6475
:10044B004B600BE5AE64526005E5AEB4532AE50A8A
:10045B00C3940F501BE50B6440600BE50B6480608D
:10046B0005E50BB4C01274F22FFF74FF3EFE80083B
:10047B0074FC2FFF74FF3EFEEEC313EF13F50875EC
:10048B00C7AA75C75585088475C7AA75C755850949
:10049B0085E4F591A2AF9203C2AF75C7AA75C75594
:1004AB00539FFEA20392AF5387EF22787FE4F6D8D7
:1004BB00FD9000007FFF7E08E4F0A3DFFCDEFA7501
:1004CB00812002050B020550E493A3F8E493A340AB
:1004DB0003F68001F208DFF48029E493A3F85407B4
:1004EB00240CC8C333C4540F4420C8834004F456AF
:1004FB00800146F6DFE4800B0102040810204080E7
:10050B00900071E47E019360BCA3FF543F30E5097A
:10051B00541FFEE493A360010ECF54C025E060A8E6
:10052B0040B8E493A3FAE493A3F8E493A3C8C58279
:10053B00C8CAC583CAF0A3C8C582C8CAC583CADFE7
:10054B00E9DEE780BE7F06120392E4F59153ACBF60
:10055B0053ADBFF59143AC8053AD7F75910243A171
:10056B000875910253A1FB75910243A1027591028B
:10057B0053A1FE9000047402F0A31201BA0001C251
:10058B00007F007E367D6E7C01120218E4F59143EC
:10059B009C01D2AF3002FDC20290000AE0FD7F0148
:0605AB0012004E80EF2259
:00000001FF
