:1000000002043AC0E0C083C082C09130980BD20194
:10001000900009E599F05398FED091D082D083D01A
:02002000E032CC
:100023000200037F061201F8E4F59153B1BF43B216
:1000330040F59143B18053B27F90000404F0A312C2
:1000430004090001C2007F007E367D6E7C01120030
:100053007E43A810D2AF3001FDC20153A8EF900038
:1000630009E0FDE4FF1204FC43A81080E922C1006B
:03007300C10100C8
:10007B000204D49000001203FDE4F591900004E01B
:10008B00146054147003020170240260030201F720
:10009B00759850438920438780E4F591438E10F582
:1000AB009153C4DF7B10FAF9F8900000E0FCA3E059
:1000BB00FDA3E0FEA3E0FF120358900005E0F8A3B8
:1000CB00E0F9A3E0FAA3E0FB120358EFF404F58D7B
:1000DB0043884043A8102275985043878053C4F837
:1000EB00E4F59143C4207B10FAF9F8900000E0FC92
:1000FB00A3E0FDA3E0FEA3E0FF120358900005E090
:10010B00F8A3E0F9A3E0FAA3E0FB120358C3E49FC2
:10011B00FFE49EFE74019DFDE49CFC78081203EA4B
:10012B008FC6E47B10FAF9F8900000E0FCA3E0FD29
:10013B00A3E0FEA3E0FF120358900005E0F8A3E054
:10014B00F9A3E0FAA3E0FB120358C3E49FFFE49E7C
:10015B00FE74019DFDE49CFCEFE48FC5F59143C457
:10016B000843A8102275F85075C480E47B10FAF987
:10017B00F8900000E0FCA3E0FDA3E0FEA3E0FF127B
:10018B000358900005E0F8A3E0F9A3E0FAA3E0FB25
:10019B00120358C3E49FFFE49EFE74019DFDE49C93
:1001AB00FC78081203EA8FC6E47B10FAF9F890008A
:1001BB0000E0FCA3E0FDA3E0FEA3E0FF12035890D8
:1001CB000005E0F8A3E0F9A3E0FAA3E0FB12035863
:1001DB00C3E49FFFE49EFE74019DFDE49CFCEFE4F1
:1001EB008FC5F59143C408F591439C0122E4F59129
:1001FB00EF24F9600C14600E2402700D75A6388084
:10020B000875A630800375A630E4F591A2AF920372
:10021B00C2AF75C7AA75C755439F01A20392AFF52D
:10022B00A775AF04F591A2AF9203C2AF75C7AA75BC
:10023B00C75543A401A20392AF85AE0805A6F5915D
:10024B00A2AF9203C2AF75C7AA75C75543A401A24B
:10025B000392AF85AE09EF24F860030202F0E508C4
:10026B0025E0FFE433FEE50954017C002FFFEC3E53
:10027B00FEAD07ED54C0F50BED543FF50A74F22FAC
:10028B00FF74FF3EFE75AF0C75A601E4F5A7F59163
:10029B00A2AF9203C2AF75C7AA75C75543A401A2FB
:1002AB000392AFE5AE644B600BE5AE64526005E5BF
:1002BB00AEB4532AE50AC3940F501BE50B644060A0
:1002CB000BE50B64806005E50BB4C01274F22FFFD5
:1002DB0074FF3EFE800874FC2FFF74FF3EFEEEC3DE
:1002EB0013EF13F50875C7AA75C75585088475C72D
:1002FB00AA75C755850985E4F591A2AF9203C2AFE4
:10030B0075C7AA75C755539FFEA20392AF5387EFCC
:10031B002275F008758200EF2FFFEE33FECD33CD43
:10032B00CC33CCC58233C5829BED9AEC99E5829890
:10033B00400CF582EE9BFEED9AFDEC99FC0FD5F08F
:10034B00D6E4CEFBE4CDFAE4CCF9A88222B800C106
:10035B00B90059BA002DEC8BF084CFCECDFCE5F073
:10036B00CBF97818EF2FFFEE33FEED33FDEC33FCBA
:10037B00EB33FB10D703994004EB99FB0FD8E5E463
:10038B00F9FA227818EF2FFFEE33FEED33FDEC3345
:10039B00FCC933C910D7059BE99A4007EC9BFCE9D4
:1003AB009AF90FD8E0E4C9FAE4CCFB2275F010EF10
:1003BB002FFFEE33FEED33FDCC33CCC833C810D753
:1003CB00079BEC9AE899400AED9BFDEC9AFCE899A7
:1003DB00F80FD5F0DAE4CDFBE4CCFAE4C8F922E867
:1003EB00600FECC313FCED13FDEE13FEEF13FFD800
:1003FB00F122ECF0A3EDF0A3EEF0A3EFF022A88234
:10040B008583F0D083D082120420120420120420A2
:10041B00120420E473E493A3C583C5F0C583C8C558
:10042B0082C8F0A3C583C5F0C583C8C582C822782E
:10043B007FE4F6D8FD9000007FFF7E08E4F0A3DF99
:10044B00FCDEFA75812002048F020026E493A3F8E8
:10045B00E493A34003F68001F208DFF48029E493D0
:10046B00A3F85407240CC8C333C4540F4420C883C7
:10047B004004F456800146F6DFE4800B01020408C9
:10048B0010204080900071E47E019360BCA3FF5468
:10049B003F30E509541FFEE493A360010ECF54C017
:1004AB0025E060A840B8E493A3FAE493A3F8E4939F
:1004BB00A3C8C582C8CAC583CAF0A3C8C582C8CAA7
:1004CB00C583CADFE9DEE780BEC0E0C083C082C05F
:1004DB009130F80B53F8FE90000AE59AF0D20230F7
:1004EB00F90620000353F8FDD091D082D083D0E0E1
:1004FB0032C091E4F591EF14600E047014C2998D23
:10050B009920990D80FB8009C2F9AF058F9A30F9BC
:04051B00FDD091225C
:00000001FF
